S01400004C6162332D4D61657374726F2E73726563C6
S11300000C943B000C9458000C9458000C94580029
S11300100C9458000C9458000C9458000C945800FC
S11300200C9458000C9458000C9458000C945800EC
S11300300C9458000C9458000C9458000C945800DC
S11300400C9458000C9458000C94B7020C9458006B
S11300500C9458000C9458000C9458000C945800BC
S11300600C9458000C945800B801BF01C601D0018B
S1130070DA01E401EE0111241FBECFEFD8E0DEBFA8
S1130080CDBF12E0A0E0B1E0E6E4FCE002C00590E0
S11300900D92A032B107D9F722E0A0E2B2E001C08C
S11300A01D92AE3BB207E1F70E9461010C94210658
S11300B00C94000087B1806387B98AB18C6F8AB9C8
S11300C088B18F7C88B98BB183708BB920E040E014
S11300D060E086E50E94A00180E895E20E940C029F
S11300E008951F93CF93DF938091240290E090931F
S11300F0BB028093BA028091250290E09093BD02E6
S11301008093BC0281E091E00E943A028091BD029A
S11301108F938091BC028F9384E091E09F938F939F
S11301201F9210E11F93CAEAD2E0DF93CF930E949B
S11301302903CE010E943A028FE99FE00197F1F76B
S113014000C000008091BB028F938091BA028F930C
S11301508EE091E09F938F931F921F93DF93CF9331
S11301600E942903CE010E943A028DB79EB74096A1
S11301700FB6F8949EBF0FBE8DBFDF91CF911F9134
S1130180089585B18B7F85B983E60E9405020E949C
S11301900702809325028FE39CE90197F1F700C0E1
S11301A0000084E60E9405020E9407028093240254
S11301B08FE39CE90197F1F700C0000085B18460EA
S11301C085B9089548B1982F937050E1959F900197
S11301D01124942F9F7C292B28B99BB193708C7F79
S11301E0892B8BB9089588E191E00E943A0264E07A
S11301F086EA92E00E948F0281E491E00E943A0232
S113020086EA92E00E943A0286EA92E00E940303A0
S1130210909321028093200284E591E00E943A02A7
S1130220809120020E94470280912002282F309161
S113023021022F3F310509F018F40E94E2000895CD
S113024082E791E00E943A0208950E948502892B78
S1130250B9F10E9470028D3619F08E36B9F02CC0B7
S11302600E9471002FEF81EE94E021508040904075
S1130270E1F700C0000081EB91E00E943A0286EDB4
S113028091E00E943A020E94250108950E94F30021
S11302902FEF81EE94E0215080409040E1F700C0C0
S11302A0000081EB91E00E943A0286ED91E00E9409
S11302B03A020E942501089586EF91E00E943A02D5
S11302C008950E945A00789480910001813009F5C4
S11302D02FEF81EE94E0215080409040E1F700C080
S11302E0000081EB91E00E943A0286ED91E00E94C9
S11302F03A020E94C1002FEF85EA9EE0215080401F
S11303009040E1F700C000000E9425011092000116
S11303100BC02FEF89E698E1215080409040E1F72F
S113032000C000000E9425010E94C1002FEF85EA51
S11303309EE0215080409040E1F700C00000C4CF0F
S1130340E82F84FF52C084B18C6284B984B18F7E5B
S113035084B98CB580618CBDE7708E2F90E08730B6
S1130360910508F04BC0FC01EC5CFF4F0C94FD02BE
S11303708CB58C7F8CBD8DB581608DBD3FC08CB537
S11303808C7F8CBD8DB58E7F8DBD38C08CB5816062
S11303908CBD8CB58D7F8CBD8DB581608DBD2EC01F
S11303A08CB581608CBD8CB58D7F8CBD8DB58E7FF9
S11303B08DBD24C08CB58E7F8CBD8CB582608CBD08
S11303C08DB581608DBD1AC08CB58E7F8CBD8CB50A
S11303D082608CBD8DB58E7F8DBD10C08CB5836061
S11303E08CBD8DB58E7F8DBD09C084B1806184B90B
S11303F084B1837D84B98CB58F7E8CBD8CB5462B3E
S1130400242B282B20642CBD08958EBD08950DB493
S113041007FEFDCF8EB50895A0E0B0E0880F991FC8
S1130420AA1FBB1F880F991FAA1FBB1F9C01AD01E8
S1130430220F331F441F551F220F331F441F551F04
S113044060E074E284EF90E00E94DB022150310905
S11304503093C5002093C40088E98093C10086E0EE
S11304608093C20008959091C00095FFFCCF8093C3
S1130470C6000895CF93DF93EC0103C021960E9438
S1130480330288818111FACFDF91CF9108950F93C0
S11304901F93CF93DF9300D000D0CDB7DEB71F9268
S11304A08F938CE192E09F938F931F9284E08F93BC
S11304B08E010F5F1F4F1F930F930E942903C801E2
S11304C00E943A020FB6F894DEBF0FBECDBF0F9064
S11304D00F900F900F90DF91CF911F910F9108957E
S11304E09091230280912202981769F0E0912202F0
S11304F0F0E0EA5DFD4F8081909122029F5F9F773B
S113050090932202089580E008952091230290910F
S1130510220281E0291301C080E090E008950F9346
S11305201F93CF93DF938C01D62FC0E00FC00E949E
S11305308502892B59F00E9470028A3079F08D303F
S113054069F0F801EC0FF11D8083CF5F2C2F30E0B0
S11305508D2F90E00197281739074CF3F801EC0F21
S1130560F11D1082DF91CF911F910F9108951F9279
S11305700F920FB60F9211248F93EF93FF93E09194
S11305802302F0E08091C600EA5DFD4F80838091F4
S113059023028F5F8F7780932302E0912302F0E0A0
S11305A0EA5DFD4F1082FF91EF918F910F900FBE86
S11305B00F901F901895A1E21A2EAA1BBB1BFD01D8
S11305C00DC0AA1FBB1FEE1FFF1FA217B307E4072E
S11305D0F50720F0A21BB30BE40BF50B661F771F86
S11305E0881F991F1A9469F7609570958095909566
S11305F09B01AC01BD01CF010895EE0FFF1F0590D3
S1130600F491E02D0994FC0188279927E89421911D
S11306102032E9F3293010F02E30C8F32B3241F0A8
S11306202D3239F4689404C00E942103820F911D75
S1130630219120532A30C0F31EF4909581959F4F49
S113064008957AE0979F902D879F802D910D112416
S11306500895AEE0B0E0EFE2F3E00C94F8050D8904
S11306601E898F89988D26E02C831A83098397FF2E
S113067002C080E090E801979E838D83AE01455EC1
S11306805F4F698D7A8DCE0101960E9459034D8189
S11306905E8157FD0AC02F813885421753070CF439
S11306A09A01F801E20FF31F10822E96E4E00C94F5
S11306B01406ABE0B0E0EFE5F3E00C94EA056C015E
S11306C07B018A01FC0117821682838181FFCCC1E0
S11306D0CE0101963C01F6019381F70193FD8591CA
S11306E093FF81917F01882309F4BAC1853239F4DB
S11306F093FD859193FF81917F01853229F4B601A1
S113070090E00E945005E7CF912C212C312CFFE181
S1130710F315D8F08B3279F038F4803279F08332E3
S1130720A1F4232D20611DC08D3261F0803369F462
S1130730232D216016C0832D8260382EE32DE460C2
S11307403E2E2AC0F32DF8601DC037FC2DC020EDCD
S1130750280F2A3040F08E32B9F436FC81C1232DA3
S11307602064322E19C036FE06C08AE0989E200D01
S11307701124922E11C0EAE02E9E200D1124222E67
S1130780F32DF0623F2E08C08C3621F4832D80684F
S1130790382E02C0883641F4F70193FD859193FF0A
S11307A081917F018111B3CF982F9F7D9554933010
S11307B028F40C5F1F4F9FE399830DC0833631F0FB
S11307C0833771F0833509F059C021C0F801808165
S11307D089830E5F1F4F88248394912C530113C087
S11307E02801F2E04F0E511CF801A080B18036FEC2
S11307F003C0692D70E002C06FEF7FEFC5010E9456
S113080045054C018201F32DFF773F2E16C02801C8
S113081022E0420E511CF801A080B18036FE03C0D4
S1130820692D70E002C06FEF7FEFC5010E943A05A9
S11308304C01F32DF0683F2E820133FC1BC0822D46
S113084090E088169906B0F4B60180E290E00E9428
S113085050052A94F4CFF50137FC859137FE819138
S11308605F01B60190E00E94500521102A9421E016
S1130870821A91088114910471F7E8C0843611F04A
S1130880893641F5F80137FE07C0608171818281A4
S113089093810C5F1F4F08C060817181072E000C8B
S11308A0880B990B0E5F1F4FF32DFF763F2E97FF9A
S11308B009C090958095709561957F4F8F4F9F4F9C
S11308C0F0683F2E2AE030E0A3010E948C05882EB8
S11308D0861845C0853731F4232D2F7EB22E2AE0A9
S11308E030E025C0932D997FB92E8F36C1F018F4CE
S11308F0883579F0B5C0803719F0883721F0B0C059
S1130900E92FE061BE2EB4FE0DC0FB2DF460BF2EB6
S113091009C034FE0AC0292F2660B22E06C028E082
S113092030E005C020E130E002C020E132E0F8010F
S1130930B7FE07C060817181828193810C5F1F4F74
S113094006C06081718180E090E00E5F1F4FA301BB
S11309500E948C05882E8618FB2DFF773F2E36FECD
S11309600DC0232D2E7FA22E891458F434FE0BC003
S113097032FC09C0832D8E7EA82E05C0B82CA32C72
S113098003C0B82C01C0B92CA4FE0FC0FE01E80DB1
S1130990F11D8081803321F49A2D997EA92E09C0FE
S11309A0A2FE06C0B394B39404C08A2D867809F0DD
S11309B0B394A3FC11C0A0FE06C0B21488F4280CA2
S11309C0922C9B180EC0B21460F4B60180E290E041
S11309D00E945005B394F7CFB21418F42B1802C038
S11309E0982C212CA4FE10C0B60180E390E00E9454
S11309F05005A2FE17C0A1FC03C088E790E002C026
S1130A0088E590E0B6010CC08A2D867859F0A1FEE5
S1130A1002C08BE201C080E2A7FC8DE2B60190E047
S1130A200E945005891438F4B60180E390E00E94D6
S1130A3050059A94F7CF8A94F301E80DF11D808153
S1130A40B60190E00E9450058110F5CF222009F4F0
S1130A5042CEB60180E290E00E9450052A94F6CF7F
S1130A60F6018681978102C08FEF9FEF2B96E2E11A
S1130A700C940606FC010590615070400110D8F7F3
S1130A80809590958E0F9F1F0895FC0161507040D2
S1130A9001900110D8F7809590958E0F9F1F0895AF
S1130AA00F931F93CF93DF93FB01238121FD03C099
S1130AB08FEF9FEF2CC022FF16C0468157812481FF
S1130AC035814217530744F4A081B1819D012F5F02
S1130AD03F4F318320838C93268137812F5F3F4F93
S1130AE03783268314C08B01EC01FB010084F1855C
S1130AF0E02D0995892BE1F6D80116968D919C91EC
S1130B001797019617969C938E931697CE01DF91B3
S1130B10CF911F910F910895FA01AA27283051F11E
S1130B20203181F1E8946F936E7F6E5F7F4F8F4F1A
S1130B309F4FAF4FB1E03ED0B4E03CD0670F781F79
S1130B40891F9A1FA11D680F791F8A1F911DA11D5E
S1130B506A0F711D811D911DA11D20D009F4689497
S1130B603F912AE0269F11243019305D3193DEF63F
S1130B70CF010895462F4770405D4193B3E00FD0F5
S1130B80C9F7F6CF462F4F70405D4A3318F0495DE0
S1130B9031FD4052419302D0A9F7EACFB4E0A695C3
S1130BA09795879577956795BA95C9F700976105E5
S1130BB0710508959B01AC010A2E0694579547953B
S1130BC037952795BA95C9F7620F731F841F951F30
S1130BD0A01D08952F923F924F925F926F927F9241
S1130BE08F929F92AF92BF92CF92DF92EF92FF9239
S1130BF00F931F93CF93DF93CDB7DEB7CA1BDB0BE5
S1130C000FB6F894DEBF0FBECDBF09942A88398889
S1130C1048885F846E847D848C849B84AA84B98490
S1130C20C884DF80EE80FD800C811B81AA81B9819C
S1130C30CE0FD11D0FB6F894DEBF0FBECDBFED01B0
S1090C400895F894FFCFB3
S1130C46010A0D0050313A202564200D0A00503265
S1130C563A202564200D0A000A0D506F7220666141
S1130C66766F722C20696E677265736120756E20CB
S1130C766EFA6D65726F2028302D323535293A208B
S1130C86000A436164656E61207265636962696422
S1130C96613A20000A56616C6F722072656369625C
S1130CA669646F20636F6D6F20656E7465726F3A49
S1130CB620000A56616C6F72206E6F2076E16C69B3
S1130CC6646F2E20506F72206661766F722C2069D5
S1130CD66E677265736120756E206EFA6D65726F4C
S1130CE620656E74726520302079203235352E0ADF
S1130CF6000A496E677265736520276D2720706147
S1130D067261206F6273657276617220656C204130
S1130D1644432E0D0A00496E677265736520276E7B
S1130D2627207061726120656C20636F6E74616444
S1130D366F722E0D0A000A456C20636F6D616E6436
S1130D466F20696E6772657361646F206E6F2073BE
S1130D5665207265636F6E6F63650A002575000012
S9030000FC
